{
  "_format": "hh-sol-artifact-1",
  "contractName": "StudyTracker",
  "sourceName": "contracts/StudyTracker.sol",
  "abi": [
    {
      "inputs": [],
      "stateMutability": "nonpayable",
      "type": "constructor"
    },
    {
      "anonymous": false,
      "inputs": [
        {
          "indexed": true,
          "internalType": "address",
          "name": "user",
          "type": "address"
        },
        {
          "indexed": false,
          "internalType": "uint256",
          "name": "timeStudied",
          "type": "uint256"
        }
      ],
      "name": "StudySessionCompleted",
      "type": "event"
    },
    {
      "inputs": [],
      "name": "endStudySession",
      "outputs": [],
      "stateMutability": "nonpayable",
      "type": "function"
    },
    {
      "inputs": [],
      "name": "getTotalStudyTime",
      "outputs": [
        {
          "internalType": "uint256",
          "name": "",
          "type": "uint256"
        }
      ],
      "stateMutability": "view",
      "type": "function"
    },
    {
      "inputs": [],
      "name": "isSessionActive",
      "outputs": [
        {
          "internalType": "bool",
          "name": "",
          "type": "bool"
        }
      ],
      "stateMutability": "view",
      "type": "function"
    },
    {
      "inputs": [],
      "name": "isStudySessionActive",
      "outputs": [
        {
          "internalType": "bool",
          "name": "",
          "type": "bool"
        }
      ],
      "stateMutability": "view",
      "type": "function"
    },
    {
      "inputs": [],
      "name": "lastStudiedTimestamp",
      "outputs": [
        {
          "internalType": "uint256",
          "name": "",
          "type": "uint256"
        }
      ],
      "stateMutability": "view",
      "type": "function"
    },
    {
      "inputs": [],
      "name": "owner",
      "outputs": [
        {
          "internalType": "address",
          "name": "",
          "type": "address"
        }
      ],
      "stateMutability": "view",
      "type": "function"
    },
    {
      "inputs": [],
      "name": "startStudySession",
      "outputs": [],
      "stateMutability": "nonpayable",
      "type": "function"
    },
    {
      "inputs": [],
      "name": "totalStudyTime",
      "outputs": [
        {
          "internalType": "uint256",
          "name": "",
          "type": "uint256"
        }
      ],
      "stateMutability": "view",
      "type": "function"
    }
  ],
  "bytecode": "0x608060405234801561001057600080fd5b50336000806101000a81548173ffffffffffffffffffffffffffffffffffffffff021916908373ffffffffffffffffffffffffffffffffffffffff1602179055504260018190555061071d806100676000396000f3fe608060405234801561001057600080fd5b50600436106100885760003560e01c806373dc89661161005b57806373dc8966146100f1578063768e5f4f146100fb5780638da5cb5b14610119578063fc5f4b5a1461013757610088565b8063031a65f41461008d57806312ca59ac146100ab57806324e37f34146100c957806346660ffb146100e7575b600080fd5b610095610155565b6040516100a29190610450565b60405180910390f35b6100b361016c565b6040516100c09190610450565b60405180910390f35b6100d161017f565b6040516100de9190610484565b60405180910390f35b6100ef610189565b005b6100f961028b565b005b610103610405565b6040516101109190610484565b60405180910390f35b61012161040b565b60405161012e91906104e0565b60405180910390f35b61013f61042f565b60405161014c9190610484565b60405180910390f35b6000600360009054906101000a900460ff16905090565b600360009054906101000a900460ff1681565b6000600254905090565b60008054906101000a900473ffffffffffffffffffffffffffffffffffffffff1673ffffffffffffffffffffffffffffffffffffffff163373ffffffffffffffffffffffffffffffffffffffff1614610217576040517f08c379a000000000000000000000000000000000000000000000000000000000815260040161020e90610558565b60405180910390fd5b600360009054906101000a900460ff1615610267576040517f08c379a000000000000000000000000000000000000000000000000000000000815260040161025e906105c4565b60405180910390fd5b426001819055506001600360006101000a81548160ff021916908315150217905550565b60008054906101000a900473ffffffffffffffffffffffffffffffffffffffff1673ffffffffffffffffffffffffffffffffffffffff163373ffffffffffffffffffffffffffffffffffffffff1614610319576040517f08c379a000000000000000000000000000000000000000000000000000000000815260040161031090610558565b60405180910390fd5b600360009054906101000a900460ff16610368576040517f08c379a000000000000000000000000000000000000000000000000000000000815260040161035f90610630565b60405180910390fd5b600042905060006001548261037d919061067f565b9050806002600082825461039191906106b3565b925050819055503373ffffffffffffffffffffffffffffffffffffffff167fac69a5f05f108dad7155cf996ea02ff9055ec6604350defa11794a482b7da0b5826040516103de9190610484565b60405180910390a26000600360006101000a81548160ff0219169083151502179055505050565b60015481565b60008054906101000a900473ffffffffffffffffffffffffffffffffffffffff1681565b60025481565b60008115159050919050565b61044a81610435565b82525050565b60006020820190506104656000830184610441565b92915050565b6000819050919050565b61047e8161046b565b82525050565b60006020820190506104996000830184610475565b92915050565b600073ffffffffffffffffffffffffffffffffffffffff82169050919050565b60006104ca8261049f565b9050919050565b6104da816104bf565b82525050565b60006020820190506104f560008301846104d1565b92915050565b600082825260208201905092915050565b7f4e6f7420746865206f776e657200000000000000000000000000000000000000600082015250565b6000610542600d836104fb565b915061054d8261050c565b602082019050919050565b6000602082019050818103600083015261057181610535565b9050919050565b7f53747564792073657373696f6e20697320616c72656164792061637469766500600082015250565b60006105ae601f836104fb565b91506105b982610578565b602082019050919050565b600060208201905081810360008301526105dd816105a1565b9050919050565b7f4e6f206163746976652073747564792073657373696f6e000000000000000000600082015250565b600061061a6017836104fb565b9150610625826105e4565b602082019050919050565b600060208201905081810360008301526106498161060d565b9050919050565b7f4e487b7100000000000000000000000000000000000000000000000000000000600052601160045260246000fd5b600061068a8261046b565b91506106958361046b565b92508282039050818111156106ad576106ac610650565b5b92915050565b60006106be8261046b565b91506106c98361046b565b92508282019050808211156106e1576106e0610650565b5b9291505056fea2646970667358221220c14eeca3234f6ace4d9ffceb5460efc71e7ff1b985632ffa9a27dbe091f7019964736f6c63430008140033",
  "linkReferences": {},
  "deployedLinkReferences": {}
}